{
  "_format": "hh-sol-artifact-1",
  "contractName": "RealEstate",
  "sourceName": "contracts/RealState.sol",
  "abi": [
    {
      "anonymous": false,
      "inputs": [
        {
          "indexed": true,
          "internalType": "uint256",
          "name": "id",
          "type": "uint256"
        },
        {
          "indexed": true,
          "internalType": "address",
          "name": "owner",
          "type": "address"
        },
        {
          "indexed": false,
          "internalType": "uint256",
          "name": "price",
          "type": "uint256"
        }
      ],
      "name": "PropertyListed",
      "type": "event"
    },
    {
      "anonymous": false,
      "inputs": [
        {
          "indexed": true,
          "internalType": "uint256",
          "name": "id",
          "type": "uint256"
        },
        {
          "indexed": true,
          "internalType": "address",
          "name": "oldOwner",
          "type": "address"
        },
        {
          "indexed": false,
          "internalType": "address",
          "name": "newOwner",
          "type": "address"
        },
        {
          "indexed": false,
          "internalType": "uint256",
          "name": "price",
          "type": "uint256"
        }
      ],
      "name": "PropertyReSold",
      "type": "event"
    },
    {
      "anonymous": false,
      "inputs": [
        {
          "indexed": true,
          "internalType": "uint256",
          "name": "id",
          "type": "uint256"
        },
        {
          "indexed": true,
          "internalType": "address",
          "name": "oldOwner",
          "type": "address"
        },
        {
          "indexed": false,
          "internalType": "address",
          "name": "newOwner",
          "type": "address"
        },
        {
          "indexed": false,
          "internalType": "uint256",
          "name": "price",
          "type": "uint256"
        }
      ],
      "name": "PropertySold",
      "type": "event"
    },
    {
      "anonymous": false,
      "inputs": [
        {
          "indexed": true,
          "internalType": "uint256",
          "name": "productId",
          "type": "uint256"
        },
        {
          "indexed": true,
          "internalType": "address",
          "name": "reviewer",
          "type": "address"
        },
        {
          "indexed": false,
          "internalType": "uint256",
          "name": "rating",
          "type": "uint256"
        },
        {
          "indexed": false,
          "internalType": "string",
          "name": "comment",
          "type": "string"
        }
      ],
      "name": "ReviewAdded",
      "type": "event"
    },
    {
      "anonymous": false,
      "inputs": [
        {
          "indexed": true,
          "internalType": "uint256",
          "name": "productId",
          "type": "uint256"
        },
        {
          "indexed": true,
          "internalType": "uint256",
          "name": "reviewIndex",
          "type": "uint256"
        },
        {
          "indexed": true,
          "internalType": "address",
          "name": "liker",
          "type": "address"
        },
        {
          "indexed": false,
          "internalType": "uint256",
          "name": "likes",
          "type": "uint256"
        }
      ],
      "name": "ReviewLiked",
      "type": "event"
    },
    {
      "inputs": [
        {
          "internalType": "address",
          "name": "owner",
          "type": "address"
        },
        {
          "internalType": "uint256",
          "name": "price",
          "type": "uint256"
        },
        {
          "internalType": "string",
          "name": "_propertyTitle",
          "type": "string"
        },
        {
          "internalType": "string",
          "name": "_category",
          "type": "string"
        },
        {
          "internalType": "string",
          "name": "_images",
          "type": "string"
        },
        {
          "internalType": "string",
          "name": "_propertyAddress",
          "type": "string"
        },
        {
          "internalType": "string",
          "name": "_description",
          "type": "string"
        }
      ],
      "name": "ListProperty",
      "outputs": [
        {
          "internalType": "uint256",
          "name": "",
          "type": "uint256"
        }
      ],
      "stateMutability": "nonpayable",
      "type": "function"
    },
    {
      "inputs": [
        {
          "internalType": "uint256",
          "name": "productId",
          "type": "uint256"
        },
        {
          "internalType": "uint256",
          "name": "rating",
          "type": "uint256"
        },
        {
          "internalType": "string",
          "name": "comment",
          "type": "string"
        },
        {
          "internalType": "address",
          "name": "user",
          "type": "address"
        }
      ],
      "name": "addReview",
      "outputs": [],
      "stateMutability": "nonpayable",
      "type": "function"
    },
    {
      "inputs": [
        {
          "internalType": "uint256",
          "name": "id",
          "type": "uint256"
        },
        {
          "internalType": "address",
          "name": "buyer",
          "type": "address"
        }
      ],
      "name": "buyProperty",
      "outputs": [],
      "stateMutability": "payable",
      "type": "function"
    },
    {
      "inputs": [],
      "name": "getAllProperties",
      "outputs": [
        {
          "components": [
            {
              "internalType": "uint256",
              "name": "productId",
              "type": "uint256"
            },
            {
              "internalType": "address",
              "name": "owner",
              "type": "address"
            },
            {
              "internalType": "uint256",
              "name": "price",
              "type": "uint256"
            },
            {
              "internalType": "string",
              "name": "propertyTitle",
              "type": "string"
            },
            {
              "internalType": "string",
              "name": "category",
              "type": "string"
            },
            {
              "internalType": "string",
              "name": "images",
              "type": "string"
            },
            {
              "internalType": "string",
              "name": "propertyAddress",
              "type": "string"
            },
            {
              "internalType": "string",
              "name": "description",
              "type": "string"
            },
            {
              "internalType": "address[]",
              "name": "reviewers",
              "type": "address[]"
            },
            {
              "internalType": "string[]",
              "name": "reviews",
              "type": "string[]"
            }
          ],
          "internalType": "struct RealEstate.Property[]",
          "name": "",
          "type": "tuple[]"
        }
      ],
      "stateMutability": "view",
      "type": "function"
    },
    {
      "inputs": [],
      "name": "getHighestratedProduct",
      "outputs": [
        {
          "internalType": "uint256",
          "name": "",
          "type": "uint256"
        }
      ],
      "stateMutability": "view",
      "type": "function"
    },
    {
      "inputs": [
        {
          "internalType": "uint256",
          "name": "productId",
          "type": "uint256"
        }
      ],
      "name": "getProductReviews",
      "outputs": [
        {
          "components": [
            {
              "internalType": "address",
              "name": "reviewer",
              "type": "address"
            },
            {
              "internalType": "uint256",
              "name": "productId",
              "type": "uint256"
            },
            {
              "internalType": "uint256",
              "name": "rating",
              "type": "uint256"
            },
            {
              "internalType": "string",
              "name": "comment",
              "type": "string"
            },
            {
              "internalType": "uint256",
              "name": "likes",
              "type": "uint256"
            }
          ],
          "internalType": "struct RealEstate.Review[]",
          "name": "",
          "type": "tuple[]"
        }
      ],
      "stateMutability": "view",
      "type": "function"
    },
    {
      "inputs": [
        {
          "internalType": "uint256",
          "name": "id",
          "type": "uint256"
        }
      ],
      "name": "getProperty",
      "outputs": [
        {
          "internalType": "uint256",
          "name": "",
          "type": "uint256"
        },
        {
          "internalType": "address",
          "name": "",
          "type": "address"
        },
        {
          "internalType": "uint256",
          "name": "",
          "type": "uint256"
        },
        {
          "internalType": "string",
          "name": "",
          "type": "string"
        },
        {
          "internalType": "string",
          "name": "",
          "type": "string"
        },
        {
          "internalType": "string",
          "name": "",
          "type": "string"
        },
        {
          "internalType": "string",
          "name": "",
          "type": "string"
        },
        {
          "internalType": "string",
          "name": "",
          "type": "string"
        }
      ],
      "stateMutability": "view",
      "type": "function"
    },
    {
      "inputs": [
        {
          "internalType": "address",
          "name": "user",
          "type": "address"
        }
      ],
      "name": "getUserProperties",
      "outputs": [
        {
          "components": [
            {
              "internalType": "uint256",
              "name": "productId",
              "type": "uint256"
            },
            {
              "internalType": "address",
              "name": "owner",
              "type": "address"
            },
            {
              "internalType": "uint256",
              "name": "price",
              "type": "uint256"
            },
            {
              "internalType": "string",
              "name": "propertyTitle",
              "type": "string"
            },
            {
              "internalType": "string",
              "name": "category",
              "type": "string"
            },
            {
              "internalType": "string",
              "name": "images",
              "type": "string"
            },
            {
              "internalType": "string",
              "name": "propertyAddress",
              "type": "string"
            },
            {
              "internalType": "string",
              "name": "description",
              "type": "string"
            },
            {
              "internalType": "address[]",
              "name": "reviewers",
              "type": "address[]"
            },
            {
              "internalType": "string[]",
              "name": "reviews",
              "type": "string[]"
            }
          ],
          "internalType": "struct RealEstate.Property[]",
          "name": "",
          "type": "tuple[]"
        }
      ],
      "stateMutability": "view",
      "type": "function"
    },
    {
      "inputs": [
        {
          "internalType": "address",
          "name": "user",
          "type": "address"
        }
      ],
      "name": "getUserReviews",
      "outputs": [
        {
          "components": [
            {
              "internalType": "address",
              "name": "reviewer",
              "type": "address"
            },
            {
              "internalType": "uint256",
              "name": "productId",
              "type": "uint256"
            },
            {
              "internalType": "uint256",
              "name": "rating",
              "type": "uint256"
            },
            {
              "internalType": "string",
              "name": "comment",
              "type": "string"
            },
            {
              "internalType": "uint256",
              "name": "likes",
              "type": "uint256"
            }
          ],
          "internalType": "struct RealEstate.Review[]",
          "name": "",
          "type": "tuple[]"
        }
      ],
      "stateMutability": "view",
      "type": "function"
    },
    {
      "inputs": [
        {
          "internalType": "uint256",
          "name": "productId",
          "type": "uint256"
        },
        {
          "internalType": "uint256",
          "name": "reviewIndex",
          "type": "uint256"
        },
        {
          "internalType": "address",
          "name": "user",
          "type": "address"
        }
      ],
      "name": "likeReview",
      "outputs": [],
      "stateMutability": "nonpayable",
      "type": "function"
    },
    {
      "inputs": [],
      "name": "propertyIndex",
      "outputs": [
        {
          "internalType": "uint256",
          "name": "",
          "type": "uint256"
        }
      ],
      "stateMutability": "view",
      "type": "function"
    },
    {
      "inputs": [],
      "name": "reviewsCounter",
      "outputs": [
        {
          "internalType": "uint256",
          "name": "",
          "type": "uint256"
        }
      ],
      "stateMutability": "view",
      "type": "function"
    },
    {
      "inputs": [
        {
          "internalType": "address",
          "name": "owner",
          "type": "address"
        },
        {
          "internalType": "uint256",
          "name": "productId",
          "type": "uint256"
        },
        {
          "internalType": "uint256",
          "name": "price",
          "type": "uint256"
        }
      ],
      "name": "updatePrice",
      "outputs": [
        {
          "internalType": "string",
          "name": "",
          "type": "string"
        }
      ],
      "stateMutability": "nonpayable",
      "type": "function"
    },
    {
      "inputs": [
        {
          "internalType": "address",
          "name": "owner",
          "type": "address"
        },
        {
          "internalType": "uint256",
          "name": "productId",
          "type": "uint256"
        },
        {
          "internalType": "string",
          "name": "_propertyTiles",
          "type": "string"
        },
        {
          "internalType": "string",
          "name": "_category",
          "type": "string"
        },
        {
          "internalType": "string",
          "name": "_images",
          "type": "string"
        },
        {
          "internalType": "string",
          "name": "_propertyAddress",
          "type": "string"
        },
        {
          "internalType": "string",
          "name": "_description",
          "type": "string"
        }
      ],
      "name": "updateProperty",
      "outputs": [
        {
          "internalType": "uint256",
          "name": "",
          "type": "uint256"
        }
      ],
      "stateMutability": "nonpayable",
      "type": "function"
    }
  ],
  "bytecode": "0x608060405234801561001057600080fd5b506126ed806100206000396000f3fe6080604052600436106100dd5760003560e01c8063844ce5621161007f578063ca6445af11610059578063ca6445af1461023c578063dc035e6d1461025c578063e57d6fb71461027c578063f56720b5146102a957600080fd5b8063844ce562146101f15780639e92a69414610207578063b02a0add1461021c57600080fd5b80633b3bfa15116100bb5780633b3bfa15146101795780633d51402c146101a757806346a4237b146101bc57806357a64bde146101dc57600080fd5b8063060a3e61146100e257806318d0e8b21461011857806332665ffb14610145575b600080fd5b3480156100ee57600080fd5b506101026100fd366004611f77565b6102bf565b60405161010f919061207c565b60405180910390f35b34801561012457600080fd5b50610138610133366004611f77565b610880565b60405161010f91906121b9565b34801561015157600080fd5b5061016561016036600461224e565b610b5d565b60405161010f989796959493929190612267565b34801561018557600080fd5b5061019961019436600461239b565b61100a565b60405190815260200161010f565b3480156101b357600080fd5b506101026110ef565b3480156101c857600080fd5b506101386101d736600461224e565b611605565b3480156101e857600080fd5b5061019961173e565b3480156101fd57600080fd5b5061019960025481565b61021a610215366004612487565b6117b4565b005b34801561022857600080fd5b5061019961023736600461239b565b6118db565b34801561024857600080fd5b5061021a6102573660046124b3565b611a39565b34801561026857600080fd5b5061021a61027736600461254a565b611cae565b34801561028857600080fd5b5061029c61029736600461257f565b611d47565b60405161010f91906125b2565b3480156102b557600080fd5b5061019960015481565b600154606090600080805b83811161032c576001600160a01b0386166000806102e98460016125db565b81526020810191909152604001600020600101546001600160a01b0316141561031a576103176001846125db565b92505b80610324816125f3565b9150506102ca565b5060008267ffffffffffffffff811115610348576103486122f8565b60405190808252806020026020018201604052801561038157816020015b61036e611df2565b8152602001906001900390816103665790505b50905060005b848111610876576001600160a01b0387166000806103a68460016125db565b81526020810191909152604001600020600101546001600160a01b031614156108645760006103d68260016125db565b600081815260208181526040918290208251610140810184528154815260018201546001600160a01b0316928101929092526002810154928201929092526003820180549394509192909183916060840191906104329061260e565b80601f016020809104026020016040519081016040528092919081815260200182805461045e9061260e565b80156104ab5780601f10610480576101008083540402835291602001916104ab565b820191906000526020600020905b81548152906001019060200180831161048e57829003601f168201915b505050505081526020016004820180546104c49061260e565b80601f01602080910402602001604051908101604052809291908181526020018280546104f09061260e565b801561053d5780601f106105125761010080835404028352916020019161053d565b820191906000526020600020905b81548152906001019060200180831161052057829003601f168201915b505050505081526020016005820180546105569061260e565b80601f01602080910402602001604051908101604052809291908181526020018280546105829061260e565b80156105cf5780601f106105a4576101008083540402835291602001916105cf565b820191906000526020600020905b8154815290600101906020018083116105b257829003601f168201915b505050505081526020016006820180546105e89061260e565b80601f01602080910402602001604051908101604052809291908181526020018280546106149061260e565b80156106615780601f1061063657610100808354040283529160200191610661565b820191906000526020600020905b81548152906001019060200180831161064457829003601f168201915b5050505050815260200160078201805461067a9061260e565b80601f01602080910402602001604051908101604052809291908181526020018280546106a69061260e565b80156106f35780601f106106c8576101008083540402835291602001916106f3565b820191906000526020600020905b8154815290600101906020018083116106d657829003601f168201915b505050505081526020016008820180548060200260200160405190810160405280929190818152602001828054801561075557602002820191906000526020600020905b81546001600160a01b03168152600190910190602001808311610737575b5050505050815260200160098201805480602002602001604051908101604052809291908181526020016000905b8282101561082f5783829060005260206000200180546107a29061260e565b80601f01602080910402602001604051908101604052809291908181526020018280546107ce9061260e565b801561081b5780601f106107f05761010080835404028352916020019161081b565b820191906000526020600020905b8154815290600101906020018083116107fe57829003601f168201915b505050505081526020019060010190610783565b505050508152505084868151811061084957610849612649565b602090810291909101015261085f6001866125db565b945050505b8061086e816125f3565b915050610387565b5095945050505050565b6001600160a01b0381166000908152600460205260408120546060918167ffffffffffffffff8111156108b5576108b56122f8565b60405190808252806020026020018201604052801561092157816020015b61090e6040518060a0016040528060006001600160a01b03168152602001600081526020016000815260200160608152602001600081525090565b8152602001906001900390816108d35790505b50905060005b6001600160a01b038516600090815260046020526040902054811015610b55576001600160a01b038516600090815260046020526040812080548390811061097157610971612649565b90600052602060002001549050600060036000838152602001908152602001600020805480602002602001604051908101604052809291908181526020016000905b82821015610aac5760008481526020908190206040805160a0810182526005860290920180546001600160a01b03168352600181015493830193909352600283015490820152600382018054919291606084019190610a119061260e565b80601f0160208091040260200160405190810160405280929190818152602001828054610a3d9061260e565b8015610a8a5780601f10610a5f57610100808354040283529160200191610a8a565b820191906000526020600020905b815481529060010190602001808311610a6d57829003601f168201915b50505050508152602001600482015481525050815260200190600101906109b3565b50505050905060005b8151811015610b3f57876001600160a01b0316828281518110610ada57610ada612649565b6020026020010151600001516001600160a01b03161415610b2d57818181518110610b0757610b07612649565b6020026020010151858581518110610b2157610b21612649565b60200260200101819052505b80610b37816125f3565b915050610ab5565b5050508080610b4d906125f3565b915050610927565b509392505050565b6000818152602081815260408083208151610140810183528154815260018201546001600160a01b03169381019390935260028101549183019190915260038101805484938493606093849384938493849389938386019190610bbf9061260e565b80601f0160208091040260200160405190810160405280929190818152602001828054610beb9061260e565b8015610c385780601f10610c0d57610100808354040283529160200191610c38565b820191906000526020600020905b815481529060010190602001808311610c1b57829003601f168201915b50505050508152602001600482018054610c519061260e565b80601f0160208091040260200160405190810160405280929190818152602001828054610c7d9061260e565b8015610cca5780601f10610c9f57610100808354040283529160200191610cca565b820191906000526020600020905b815481529060010190602001808311610cad57829003601f168201915b50505050508152602001600582018054610ce39061260e565b80601f0160208091040260200160405190810160405280929190818152602001828054610d0f9061260e565b8015610d5c5780601f10610d3157610100808354040283529160200191610d5c565b820191906000526020600020905b815481529060010190602001808311610d3f57829003601f168201915b50505050508152602001600682018054610d759061260e565b80601f0160208091040260200160405190810160405280929190818152602001828054610da19061260e565b8015610dee5780601f10610dc357610100808354040283529160200191610dee565b820191906000526020600020905b815481529060010190602001808311610dd157829003601f168201915b50505050508152602001600782018054610e079061260e565b80601f0160208091040260200160405190810160405280929190818152602001828054610e339061260e565b8015610e805780601f10610e5557610100808354040283529160200191610e80565b820191906000526020600020905b815481529060010190602001808311610e6357829003601f168201915b5050505050815260200160088201805480602002602001604051908101604052809291908181526020018280548015610ee257602002820191906000526020600020905b81546001600160a01b03168152600190910190602001808311610ec4575b5050505050815260200160098201805480602002602001604051908101604052809291908181526020016000905b82821015610fbc578382906000526020600020018054610f2f9061260e565b80601f0160208091040260200160405190810160405280929190818152602001828054610f5b9061260e565b8015610fa85780601f10610f7d57610100808354040283529160200191610fa8565b820191906000526020600020905b815481529060010190602001808311610f8b57829003601f168201915b505050505081526020019060010190610f10565b50505050815250509050806000015181602001518260400151836060015184608001518560a001518660c001518760e001519850985098509850985098509850985050919395975091939597565b600086815260208190526040812060018101546001600160a01b038a81169116146110745760405162461bcd60e51b81526020600482015260156024820152742cb7ba9030b932903737ba103a34329037bbb732b960591b60448201526064015b60405180910390fd5b865161108990600383019060208a0190611e4e565b50855161109f9060048301906020890190611e4e565b5084516110b59060058301906020880190611e4e565b5083516110cb9060068301906020870190611e4e565b5082516110e19060078301906020860190611e4e565b509698975050505050505050565b6001546060906000808267ffffffffffffffff811115611111576111116122f8565b60405190808252806020026020018201604052801561114a57816020015b611137611df2565b81526020019060019003908161112f5790505b50905060005b83811015610b555760006111658260016125db565b600081815260208181526040918290208251610140810184528154815260018201546001600160a01b0316928101929092526002810154928201929092526003820180549394509192909183916060840191906111c19061260e565b80601f01602080910402602001604051908101604052809291908181526020018280546111ed9061260e565b801561123a5780601f1061120f5761010080835404028352916020019161123a565b820191906000526020600020905b81548152906001019060200180831161121d57829003601f168201915b505050505081526020016004820180546112539061260e565b80601f016020809104026020016040519081016040528092919081815260200182805461127f9061260e565b80156112cc5780601f106112a1576101008083540402835291602001916112cc565b820191906000526020600020905b8154815290600101906020018083116112af57829003601f168201915b505050505081526020016005820180546112e59061260e565b80601f01602080910402602001604051908101604052809291908181526020018280546113119061260e565b801561135e5780601f106113335761010080835404028352916020019161135e565b820191906000526020600020905b81548152906001019060200180831161134157829003601f168201915b505050505081526020016006820180546113779061260e565b80601f01602080910402602001604051908101604052809291908181526020018280546113a39061260e565b80156113f05780601f106113c5576101008083540402835291602001916113f0565b820191906000526020600020905b8154815290600101906020018083116113d357829003601f168201915b505050505081526020016007820180546114099061260e565b80601f01602080910402602001604051908101604052809291908181526020018280546114359061260e565b80156114825780601f1061145757610100808354040283529160200191611482565b820191906000526020600020905b81548152906001019060200180831161146557829003601f168201915b50505050508152602001600882018054806020026020016040519081016040528092919081815260200182805480156114e457602002820191906000526020600020905b81546001600160a01b031681526001909101906020018083116114c6575b5050505050815260200160098201805480602002602001604051908101604052809291908181526020016000905b828210156115be5783829060005260206000200180546115319061260e565b80601f016020809104026020016040519081016040528092919081815260200182805461155d9061260e565b80156115aa5780601f1061157f576101008083540402835291602001916115aa565b820191906000526020600020905b81548152906001019060200180831161158d57829003601f168201915b505050505081526020019060010190611512565b50505050815250508486815181106115d8576115d8612649565b60209081029190910101526115ee6001866125db565b9450505080806115fd906125f3565b915050611150565b606060036000838152602001908152602001600020805480602002602001604051908101604052809291908181526020016000905b828210156117335760008481526020908190206040805160a0810182526005860290920180546001600160a01b031683526001810154938301939093526002830154908201526003820180549192916060840191906116989061260e565b80601f01602080910402602001604051908101604052809291908181526020018280546116c49061260e565b80156117115780601f106116e657610100808354040283529160200191611711565b820191906000526020600020905b8154815290600101906020018083116116f457829003601f168201915b505050505081526020016004820154815250508152602001906001019061163a565b505050509050919050565b60008080805b6001548110156117ad576000818152600560205260409020600201541561179b5760008181526005602052604081206002810154600190910154611788919061265f565b905083811115611799578093508192505b505b806117a5816125f3565b915050611744565b5092915050565b600082815260208190526040902060020154349081101561180c5760405162461bcd60e51b8152602060048201526012602482015271496e73756666696369656e742066756e647360701b604482015260640161106b565b600083815260208190526040808220600181015491519092916001600160a01b03169084908381818185875af1925050503d8060008114611869576040519150601f19603f3d011682016040523d82523d6000602084013e61186e565b606091505b5050905080156118d4576001820180546001600160a01b0319166001600160a01b038616908117909155604080518281526020810186905287917fddd64180d9701c7ede08673ac8106484ff983a472929330d4fbde4e35d65cb06910160405180910390a35b5050505050565b600080871161192c5760405162461bcd60e51b815260206004820181905260248201527f5072696365206d7573742062652067726561746572207468616e206365726f2e604482015260640161106b565b600180546000918261193d836125f3565b909155506000818152602081815260409091208281556001810180546001600160a01b0319166001600160a01b038e16179055600281018b905589519293509161198f916003840191908b0190611e4e565b5086516119a590600483019060208a0190611e4e565b5085516119bb9060058301906020890190611e4e565b5084516119d19060068301906020880190611e4e565b5083516119e79060078301906020870190611e4e565b50896001600160a01b0316827f23fb658c1698b92f5fe511a079c17ecf7965cbc3f1b873328c67e2c3c0820f1f8b604051611a2491815260200190565b60405180910390a35098975050505050505050565b60018410158015611a4b575060058411155b611a975760405162461bcd60e51b815260206004820152601e60248201527f526174696e67206d757374206265206265747765656e203120616e6420350000604482015260640161106b565b6000858152602081815260408220600881018054600180820183559185528385200180546001600160a01b0319166001600160a01b0387161790556009820180549182018155845291909220611aef91018585611ed2565b50600360008781526020019081526020016000206040518060a00160405280846001600160a01b0316815260200188815260200187815260200186868080601f0160208091040260200160405190810160405280939291908181526020018383808284376000920182905250938552505050602091820181905283546001808201865594825290829020835160059092020180546001600160a01b0319166001600160a01b0390921691909117815582820151938101939093556040820151600284015560608201518051929392611bcd9260038501920190611e4e565b50608091909101516004918201556001600160a01b038316600090815260209182526040808220805460018181018355918452848420018a9055898352600590935281209091018054879290611c249084906125db565b90915550506000868152600560205260408120600201805491611c46836125f3565b9190505550816001600160a01b0316867f4beb3faed0901f48c8eaa53db80247f723ddeb08676b6badb9ee2f191d1ac2df878787604051611c8993929190612681565b60405180910390a360028054906000611ca1836125f3565b9190505550505050505050565b6000838152600360205260408120805484908110611cce57611cce612649565b90600052602060002090600502019050806004016000815480929190611cf3906125f3565b9190505550816001600160a01b031683857fc58deae63c2d94e1502a392380f59901dc4cd3c3bbc40308b6189decf09671d58460040154604051611d3991815260200190565b60405180910390a450505050565b60008281526020819052604090206001810154606091906001600160a01b03868116911614611db05760405162461bcd60e51b81526020600482015260156024820152742cb7ba9030b932903737ba103a34329037bbb732b960591b604482015260640161106b565b6002018290555060408051808201909152601e81527f596f75722070726f70657274792070726963652069732075706461746564000060208201529392505050565b6040518061014001604052806000815260200160006001600160a01b0316815260200160008152602001606081526020016060815260200160608152602001606081526020016060815260200160608152602001606081525090565b828054611e5a9061260e565b90600052602060002090601f016020900481019282611e7c5760008555611ec2565b82601f10611e9557805160ff1916838001178555611ec2565b82800160010185558215611ec2579182015b82811115611ec2578251825591602001919060010190611ea7565b50611ece929150611f46565b5090565b828054611ede9061260e565b90600052602060002090601f016020900481019282611f005760008555611ec2565b82601f10611f195782800160ff19823516178555611ec2565b82800160010185558215611ec2579182015b82811115611ec2578235825591602001919060010190611f2b565b5b80821115611ece5760008155600101611f47565b80356001600160a01b0381168114611f7257600080fd5b919050565b600060208284031215611f8957600080fd5b611f9282611f5b565b9392505050565b6000815180845260005b81811015611fbf57602081850181015186830182015201611fa3565b81811115611fd1576000602083870101525b50601f01601f19169290920160200192915050565b600081518084526020808501945080840160005b8381101561201f5781516001600160a01b031687529582019590820190600101611ffa565b509495945050505050565b6000815180845260208085019450848260051b860182860160005b8581101561206f57838303895261205d838351611f99565b98850198925090840190600101612045565b5090979650505050505050565b60006020808301818452808551808352604092508286019150828160051b87010184880160005b838110156121ab57888303603f19018552815180518452878101516001600160a01b038116898601526101409050878201518886015260608083015182828801526120f083880182611f99565b925050506080808301518683038288015261210b8382611f99565b9250505060a080830151868303828801526121268382611f99565b9250505060c080830151868303828801526121418382611f99565b9250505060e0808301518683038288015261215c8382611f99565b9250505061010080830151868303828801526121788382611fe6565b925050506101208083015192508582038187015250612197818361202a565b9689019694505050908601906001016120a3565b509098975050505050505050565b60006020808301818452808551808352604092508286019150828160051b87010184880160005b838110156121ab57888303603f19018552815180516001600160a01b031684528781015188850152868101518785015260608082015160a0828701819052919061222c83880182611f99565b60809485015197909401969096525050948701949250908601906001016121e0565b60006020828403121561226057600080fd5b5035919050565b8881526001600160a01b0388166020820152604081018790526101006060820181905260009061229983820189611f99565b905082810360808401526122ad8188611f99565b905082810360a08401526122c18187611f99565b905082810360c08401526122d58186611f99565b905082810360e08401526122e98185611f99565b9b9a5050505050505050505050565b634e487b7160e01b600052604160045260246000fd5b600082601f83011261231f57600080fd5b813567ffffffffffffffff8082111561233a5761233a6122f8565b604051601f8301601f19908116603f01168101908282118183101715612362576123626122f8565b8160405283815286602085880101111561237b57600080fd5b836020870160208301376000602085830101528094505050505092915050565b600080600080600080600060e0888a0312156123b657600080fd5b6123bf88611f5b565b965060208801359550604088013567ffffffffffffffff808211156123e357600080fd5b6123ef8b838c0161230e565b965060608a013591508082111561240557600080fd5b6124118b838c0161230e565b955060808a013591508082111561242757600080fd5b6124338b838c0161230e565b945060a08a013591508082111561244957600080fd5b6124558b838c0161230e565b935060c08a013591508082111561246b57600080fd5b506124788a828b0161230e565b91505092959891949750929550565b6000806040838503121561249a57600080fd5b823591506124aa60208401611f5b565b90509250929050565b6000806000806000608086880312156124cb57600080fd5b8535945060208601359350604086013567ffffffffffffffff808211156124f157600080fd5b818801915088601f83011261250557600080fd5b81358181111561251457600080fd5b89602082850101111561252657600080fd5b60208301955080945050505061253e60608701611f5b565b90509295509295909350565b60008060006060848603121561255f57600080fd5b833592506020840135915061257660408501611f5b565b90509250925092565b60008060006060848603121561259457600080fd5b61259d84611f5b565b95602085013595506040909401359392505050565b602081526000611f926020830184611f99565b634e487b7160e01b600052601160045260246000fd5b600082198211156125ee576125ee6125c5565b500190565b6000600019821415612607576126076125c5565b5060010190565b600181811c9082168061262257607f821691505b6020821081141561264357634e487b7160e01b600052602260045260246000fd5b50919050565b634e487b7160e01b600052603260045260246000fd5b60008261267c57634e487b7160e01b600052601260045260246000fd5b500490565b83815260406020820152816040820152818360608301376000818301606090810191909152601f909201601f191601019291505056fea26469706673582212201aad5022981e3a3e6da2a4a9f15e72408f27c6e738869b3bccc9fa98733d2bda64736f6c63430008090033",
  "linkReferences": {},
  "deployedLinkReferences": {}
}